{
  "contractName": "BulkMultiSender",
  "abi": [
    {
      "inputs": [],
      "stateMutability": "nonpayable",
      "type": "constructor"
    },
    {
      "inputs": [],
      "name": "owner",
      "outputs": [
        {
          "internalType": "address",
          "name": "",
          "type": "address"
        }
      ],
      "stateMutability": "view",
      "type": "function"
    },
    {
      "inputs": [
        {
          "internalType": "address[]",
          "name": "recipients",
          "type": "address[]"
        },
        {
          "internalType": "uint256[]",
          "name": "amounts",
          "type": "uint256[]"
        }
      ],
      "name": "sendEth",
      "outputs": [],
      "stateMutability": "payable",
      "type": "function"
    }
  ],
  "bytecode": "0x608060405234801561000f575f80fd5b50335f806101000a81548173ffffffffffffffffffffffffffffffffffffffff021916908373ffffffffffffffffffffffffffffffffffffffff1602179055506107348061005c5f395ff3fe608060405260043610610028575f3560e01c806325245b261461002c5780638da5cb5b14610048575b5f80fd5b610046600480360381019061004191906104b9565b610072565b005b348015610053575f80fd5b5061005c6101e8565b604051610069919061053e565b60405180910390f35b5f8054906101000a900473ffffffffffffffffffffffffffffffffffffffff1673ffffffffffffffffffffffffffffffffffffffff163373ffffffffffffffffffffffffffffffffffffffff16146100ff576040517f08c379a00000000000000000000000000000000000000000000000000000000081526004016100f6906105d7565b60405180910390fd5b8051825114610143576040517f08c379a000000000000000000000000000000000000000000000000000000000815260040161013a9061063f565b60405180910390fd5b5f5b82518110156101e3575f8382815181106101625761016161065d565b5b602002602001015190505f8383815181106101805761017f61065d565b5b602002602001015190508173ffffffffffffffffffffffffffffffffffffffff166108fc8290811502906040515f60405180830381858888f193505050501580156101cd573d5f803e3d5ffd5b50505080806101db906106b7565b915050610145565b505050565b5f8054906101000a900473ffffffffffffffffffffffffffffffffffffffff1681565b5f604051905090565b5f80fd5b5f80fd5b5f80fd5b5f601f19601f8301169050919050565b7f4e487b71000000000000000000000000000000000000000000000000000000005f52604160045260245ffd5b61026682610220565b810181811067ffffffffffffffff8211171561028557610284610230565b5b80604052505050565b5f61029761020b565b90506102a3828261025d565b919050565b5f67ffffffffffffffff8211156102c2576102c1610230565b5b602082029050602081019050919050565b5f80fd5b5f73ffffffffffffffffffffffffffffffffffffffff82169050919050565b5f610300826102d7565b9050919050565b610310816102f6565b811461031a575f80fd5b50565b5f8135905061032b81610307565b92915050565b5f61034361033e846102a8565b61028e565b90508083825260208201905060208402830185811115610366576103656102d3565b5b835b8181101561038f578061037b888261031d565b845260208401935050602081019050610368565b5050509392505050565b5f82601f8301126103ad576103ac61021c565b5b81356103bd848260208601610331565b91505092915050565b5f67ffffffffffffffff8211156103e0576103df610230565b5b602082029050602081019050919050565b5f819050919050565b610403816103f1565b811461040d575f80fd5b50565b5f8135905061041e816103fa565b92915050565b5f610436610431846103c6565b61028e565b90508083825260208201905060208402830185811115610459576104586102d3565b5b835b81811015610482578061046e8882610410565b84526020840193505060208101905061045b565b5050509392505050565b5f82601f8301126104a05761049f61021c565b5b81356104b0848260208601610424565b91505092915050565b5f80604083850312156104cf576104ce610214565b5b5f83013567ffffffffffffffff8111156104ec576104eb610218565b5b6104f885828601610399565b925050602083013567ffffffffffffffff81111561051957610518610218565b5b6105258582860161048c565b9150509250929050565b610538816102f6565b82525050565b5f6020820190506105515f83018461052f565b92915050565b5f82825260208201905092915050565b7f4f6e6c7920746865206f776e65722063616e2063616c6c20746869732066756e5f8201527f6374696f6e000000000000000000000000000000000000000000000000000000602082015250565b5f6105c1602583610557565b91506105cc82610567565b604082019050919050565b5f6020820190508181035f8301526105ee816105b5565b9050919050565b7f417272617973206d7573742068617665207468652073616d65206c656e6774685f82015250565b5f610629602083610557565b9150610634826105f5565b602082019050919050565b5f6020820190508181035f8301526106568161061d565b9050919050565b7f4e487b71000000000000000000000000000000000000000000000000000000005f52603260045260245ffd5b7f4e487b71000000000000000000000000000000000000000000000000000000005f52601160045260245ffd5b5f6106c1826103f1565b91507fffffffffffffffffffffffffffffffffffffffffffffffffffffffffffffffff82036106f3576106f261068a565b5b60018201905091905056fea26469706673582212209eba5a7051b21729438ce312fcdb54a7ad86b845f42bed111ed111d9a48b7d2a64736f6c63430008150033",
  "immutableReferences": {},
  "source": "// SPDX-License-Identifier: MIT\r\npragma solidity ^0.8.0;\r\n\r\ncontract BulkMultiSender {\r\n    address public owner;\r\n\r\n    modifier onlyOwner() {\r\n        require(msg.sender == owner, \"Only the owner can call this function\");\r\n        _;\r\n    }\r\n\r\n    constructor() {\r\n        owner = msg.sender;\r\n    }\r\n\r\n    function sendEth(address[] memory recipients, uint256[] memory amounts) external payable onlyOwner {\r\n        require(recipients.length == amounts.length, \"Arrays must have the same length\");\r\n\r\n        for (uint256 i = 0; i < recipients.length; i++) {\r\n            address to = recipients[i];\r\n            uint256 amount = amounts[i];\r\n            payable(to).transfer(amount);\r\n        }\r\n    }\r\n}\r\n",
  "sourcePath": "D:\\dev\\Emertech-Labs\\ETH-Multisender\\contracts\\BulkMultiSender.sol",
  "compiler": {
    "name": "solc",
    "version": "0.8.21+commit.d9974bed.Emscripten.clang"
  },
  "schemaVersion": "3.4.16",
  "updatedAt": "2024-01-18T19:34:56.233Z",
  "devdoc": {
    "kind": "dev",
    "methods": {},
    "version": 1
  },
  "userdoc": {
    "kind": "user",
    "methods": {},
    "version": 1
  }
}